{
  "contractName": "FixedSupplyToken",
  "abi": [
    {
      "constant": true,
      "inputs": [],
      "name": "name",
      "outputs": [
        {
          "name": "",
          "type": "string"
        }
      ],
      "payable": false,
      "stateMutability": "view",
      "type": "function",
      "signature": "0x06fdde03"
    },
    {
      "constant": true,
      "inputs": [],
      "name": "decimals",
      "outputs": [
        {
          "name": "",
          "type": "uint8"
        }
      ],
      "payable": false,
      "stateMutability": "view",
      "type": "function",
      "signature": "0x313ce567"
    },
    {
      "constant": false,
      "inputs": [],
      "name": "acceptOwnership",
      "outputs": [],
      "payable": false,
      "stateMutability": "nonpayable",
      "type": "function",
      "signature": "0x79ba5097"
    },
    {
      "constant": true,
      "inputs": [],
      "name": "owner",
      "outputs": [
        {
          "name": "",
          "type": "address"
        }
      ],
      "payable": false,
      "stateMutability": "view",
      "type": "function",
      "signature": "0x8da5cb5b"
    },
    {
      "constant": true,
      "inputs": [],
      "name": "symbol",
      "outputs": [
        {
          "name": "",
          "type": "string"
        }
      ],
      "payable": false,
      "stateMutability": "view",
      "type": "function",
      "signature": "0x95d89b41"
    },
    {
      "constant": true,
      "inputs": [],
      "name": "newOwner",
      "outputs": [
        {
          "name": "",
          "type": "address"
        }
      ],
      "payable": false,
      "stateMutability": "view",
      "type": "function",
      "signature": "0xd4ee1d90"
    },
    {
      "constant": false,
      "inputs": [
        {
          "name": "_newOwner",
          "type": "address"
        }
      ],
      "name": "transferOwnership",
      "outputs": [],
      "payable": false,
      "stateMutability": "nonpayable",
      "type": "function",
      "signature": "0xf2fde38b"
    },
    {
      "inputs": [],
      "payable": false,
      "stateMutability": "nonpayable",
      "type": "constructor",
      "signature": "constructor"
    },
    {
      "payable": true,
      "stateMutability": "payable",
      "type": "fallback"
    },
    {
      "anonymous": false,
      "inputs": [
        {
          "indexed": true,
          "name": "_from",
          "type": "address"
        },
        {
          "indexed": true,
          "name": "_to",
          "type": "address"
        }
      ],
      "name": "OwnershipTransferred",
      "type": "event",
      "signature": "0x8be0079c531659141344cd1fd0a4f28419497f9722a3daafe3b4186f6b6457e0"
    },
    {
      "anonymous": false,
      "inputs": [
        {
          "indexed": true,
          "name": "from",
          "type": "address"
        },
        {
          "indexed": true,
          "name": "to",
          "type": "address"
        },
        {
          "indexed": false,
          "name": "tokens",
          "type": "uint256"
        }
      ],
      "name": "Transfer",
      "type": "event",
      "signature": "0xddf252ad1be2c89b69c2b068fc378daa952ba7f163c4a11628f55a4df523b3ef"
    },
    {
      "anonymous": false,
      "inputs": [
        {
          "indexed": true,
          "name": "tokenOwner",
          "type": "address"
        },
        {
          "indexed": true,
          "name": "spender",
          "type": "address"
        },
        {
          "indexed": false,
          "name": "tokens",
          "type": "uint256"
        }
      ],
      "name": "Approval",
      "type": "event",
      "signature": "0x8c5be1e5ebec7d5bd14f71427d1e84f3dd0314c0f7b2291e5b200ac8c7c3b925"
    },
    {
      "constant": true,
      "inputs": [],
      "name": "totalSupply",
      "outputs": [
        {
          "name": "",
          "type": "uint256"
        }
      ],
      "payable": false,
      "stateMutability": "view",
      "type": "function",
      "signature": "0x18160ddd"
    },
    {
      "constant": true,
      "inputs": [
        {
          "name": "tokenOwner",
          "type": "address"
        }
      ],
      "name": "balanceOf",
      "outputs": [
        {
          "name": "balance",
          "type": "uint256"
        }
      ],
      "payable": false,
      "stateMutability": "view",
      "type": "function",
      "signature": "0x70a08231"
    },
    {
      "constant": false,
      "inputs": [
        {
          "name": "to",
          "type": "address"
        },
        {
          "name": "tokens",
          "type": "uint256"
        }
      ],
      "name": "transfer",
      "outputs": [
        {
          "name": "success",
          "type": "bool"
        }
      ],
      "payable": false,
      "stateMutability": "nonpayable",
      "type": "function",
      "signature": "0xa9059cbb"
    },
    {
      "constant": false,
      "inputs": [
        {
          "name": "spender",
          "type": "address"
        },
        {
          "name": "tokens",
          "type": "uint256"
        }
      ],
      "name": "approve",
      "outputs": [
        {
          "name": "success",
          "type": "bool"
        }
      ],
      "payable": false,
      "stateMutability": "nonpayable",
      "type": "function",
      "signature": "0x095ea7b3"
    },
    {
      "constant": false,
      "inputs": [
        {
          "name": "from",
          "type": "address"
        },
        {
          "name": "to",
          "type": "address"
        },
        {
          "name": "tokens",
          "type": "uint256"
        }
      ],
      "name": "transferFrom",
      "outputs": [
        {
          "name": "success",
          "type": "bool"
        }
      ],
      "payable": false,
      "stateMutability": "nonpayable",
      "type": "function",
      "signature": "0x23b872dd"
    },
    {
      "constant": true,
      "inputs": [
        {
          "name": "tokenOwner",
          "type": "address"
        },
        {
          "name": "spender",
          "type": "address"
        }
      ],
      "name": "allowance",
      "outputs": [
        {
          "name": "remaining",
          "type": "uint256"
        }
      ],
      "payable": false,
      "stateMutability": "view",
      "type": "function",
      "signature": "0xdd62ed3e"
    },
    {
      "constant": false,
      "inputs": [
        {
          "name": "spender",
          "type": "address"
        },
        {
          "name": "tokens",
          "type": "uint256"
        },
        {
          "name": "data",
          "type": "bytes"
        }
      ],
      "name": "approveAndCall",
      "outputs": [
        {
          "name": "success",
          "type": "bool"
        }
      ],
      "payable": false,
      "stateMutability": "nonpayable",
      "type": "function",
      "signature": "0xcae9ca51"
    },
    {
      "constant": false,
      "inputs": [
        {
          "name": "tokenAddress",
          "type": "address"
        },
        {
          "name": "tokens",
          "type": "uint256"
        }
      ],
      "name": "transferAnyERC20Token",
      "outputs": [
        {
          "name": "success",
          "type": "bool"
        }
      ],
      "payable": false,
      "stateMutability": "nonpayable",
      "type": "function",
      "signature": "0xdc39d06d"
    }
  ],
  "bytecode": "0x60806040523480156200001157600080fd5b50336000806101000a81548173ffffffffffffffffffffffffffffffffffffffff021916908373ffffffffffffffffffffffffffffffffffffffff1602179055506040805190810160405280600581526020017f4649584544000000000000000000000000000000000000000000000000000000815250600290805190602001906200009f92919062000221565b506040805190810160405280601a81526020017f4578616d706c6520466978656420537570706c7920546f6b656e00000000000081525060039080519060200190620000ed92919062000221565b506000600460006101000a81548160ff021916908360ff160217905550600460009054906101000a900460ff1660ff16600a0a620f424002600581905550600554600660008060009054906101000a900473ffffffffffffffffffffffffffffffffffffffff1673ffffffffffffffffffffffffffffffffffffffff1673ffffffffffffffffffffffffffffffffffffffff168152602001908152602001600020819055506000809054906101000a900473ffffffffffffffffffffffffffffffffffffffff1673ffffffffffffffffffffffffffffffffffffffff16600073ffffffffffffffffffffffffffffffffffffffff167fddf252ad1be2c89b69c2b068fc378daa952ba7f163c4a11628f55a4df523b3ef6005546040518082815260200191505060405180910390a3620002d0565b828054600181600116156101000203166002900490600052602060002090601f016020900481019282601f106200026457805160ff191683800117855562000295565b8280016001018555821562000295579182015b828111156200029457825182559160200191906001019062000277565b5b509050620002a49190620002a8565b5090565b620002cd91905b80821115620002c9576000816000905550600101620002af565b5090565b90565b6115ce80620002e06000396000f3fe608060405260043610610105576000357c0100000000000000000000000000000000000000000000000000000000900480638da5cb5b116100a7578063d4ee1d9011610076578063d4ee1d90146105dc578063dc39d06d14610633578063dd62ed3e146106a6578063f2fde38b1461072b57610105565b80638da5cb5b1461037857806395d89b41146103cf578063a9059cbb1461045f578063cae9ca51146104d257610105565b806323b872dd116100e357806323b872dd14610238578063313ce567146102cb57806370a08231146102fc57806379ba50971461036157610105565b806306fdde031461010a578063095ea7b31461019a57806318160ddd1461020d575b600080fd5b34801561011657600080fd5b5061011f61077c565b6040518080602001828103825283818151815260200191508051906020019080838360005b8381101561015f578082015181840152602081019050610144565b50505050905090810190601f16801561018c5780820380516001836020036101000a031916815260200191505b509250505060405180910390f35b3480156101a657600080fd5b506101f3600480360360408110156101bd57600080fd5b81019080803573ffffffffffffffffffffffffffffffffffffffff1690602001909291908035906020019092919050505061081a565b604051808215151515815260200191505060405180910390f35b34801561021957600080fd5b5061022261090c565b6040518082815260200191505060405180910390f35b34801561024457600080fd5b506102b16004803603606081101561025b57600080fd5b81019080803573ffffffffffffffffffffffffffffffffffffffff169060200190929190803573ffffffffffffffffffffffffffffffffffffffff16906020019092919080359060200190929190505050610967565b604051808215151515815260200191505060405180910390f35b3480156102d757600080fd5b506102e0610c12565b604051808260ff1660ff16815260200191505060405180910390f35b34801561030857600080fd5b5061034b6004803603602081101561031f57600080fd5b81019080803573ffffffffffffffffffffffffffffffffffffffff169060200190929190505050610c25565b6040518082815260200191505060405180910390f35b34801561036d57600080fd5b50610376610c6e565b005b34801561038457600080fd5b5061038d610e0d565b604051808273ffffffffffffffffffffffffffffffffffffffff1673ffffffffffffffffffffffffffffffffffffffff16815260200191505060405180910390f35b3480156103db57600080fd5b506103e4610e32565b6040518080602001828103825283818151815260200191508051906020019080838360005b83811015610424578082015181840152602081019050610409565b50505050905090810190601f1680156104515780820380516001836020036101000a031916815260200191505b509250505060405180910390f35b34801561046b57600080fd5b506104b86004803603604081101561048257600080fd5b81019080803573ffffffffffffffffffffffffffffffffffffffff16906020019092919080359060200190929190505050610ed0565b604051808215151515815260200191505060405180910390f35b3480156104de57600080fd5b506105c2600480360360608110156104f557600080fd5b81019080803573ffffffffffffffffffffffffffffffffffffffff169060200190929190803590602001909291908035906020019064010000000081111561053c57600080fd5b82018360208201111561054e57600080fd5b8035906020019184600183028401116401000000008311171561057057600080fd5b91908080601f016020809104026020016040519081016040528093929190818152602001838380828437600081840152601f19601f82011690508083019250505050505050919291929050505061106b565b604051808215151515815260200191505060405180910390f35b3480156105e857600080fd5b506105f16112ba565b604051808273ffffffffffffffffffffffffffffffffffffffff1673ffffffffffffffffffffffffffffffffffffffff16815260200191505060405180910390f35b34801561063f57600080fd5b5061068c6004803603604081101561065657600080fd5b81019080803573ffffffffffffffffffffffffffffffffffffffff169060200190929190803590602001909291905050506112e0565b604051808215151515815260200191505060405180910390f35b3480156106b257600080fd5b50610715600480360360408110156106c957600080fd5b81019080803573ffffffffffffffffffffffffffffffffffffffff169060200190929190803573ffffffffffffffffffffffffffffffffffffffff169060200190929190505050611444565b6040518082815260200191505060405180910390f35b34801561073757600080fd5b5061077a6004803603602081101561074e57600080fd5b81019080803573ffffffffffffffffffffffffffffffffffffffff1690602001909291905050506114cb565b005b60038054600181600116156101000203166002900480601f0160208091040260200160405190810160405280929190818152602001828054600181600116156101000203166002900480156108125780601f106107e757610100808354040283529160200191610812565b820191906000526020600020905b8154815290600101906020018083116107f557829003601f168201915b505050505081565b600081600760003373ffffffffffffffffffffffffffffffffffffffff1673ffffffffffffffffffffffffffffffffffffffff16815260200190815260200160002060008573ffffffffffffffffffffffffffffffffffffffff1673ffffffffffffffffffffffffffffffffffffffff168152602001908152602001600020819055508273ffffffffffffffffffffffffffffffffffffffff163373ffffffffffffffffffffffffffffffffffffffff167f8c5be1e5ebec7d5bd14f71427d1e84f3dd0314c0f7b2291e5b200ac8c7c3b925846040518082815260200191505060405180910390a36001905092915050565b6000610962600660008073ffffffffffffffffffffffffffffffffffffffff1673ffffffffffffffffffffffffffffffffffffffff1681526020019081526020016000205460055461156a90919063ffffffff16565b905090565b60006109bb82600660008773ffffffffffffffffffffffffffffffffffffffff1673ffffffffffffffffffffffffffffffffffffffff1681526020019081526020016000205461156a90919063ffffffff16565b600660008673ffffffffffffffffffffffffffffffffffffffff1673ffffffffffffffffffffffffffffffffffffffff16815260200190815260200160002081905550610a8d82600760008773ffffffffffffffffffffffffffffffffffffffff1673ffffffffffffffffffffffffffffffffffffffff16815260200190815260200160002060003373ffffffffffffffffffffffffffffffffffffffff1673ffffffffffffffffffffffffffffffffffffffff1681526020019081526020016000205461156a90919063ffffffff16565b600760008673ffffffffffffffffffffffffffffffffffffffff1673ffffffffffffffffffffffffffffffffffffffff16815260200190815260200160002060003373ffffffffffffffffffffffffffffffffffffffff1673ffffffffffffffffffffffffffffffffffffffff16815260200190815260200160002081905550610b5f82600660008673ffffffffffffffffffffffffffffffffffffffff1673ffffffffffffffffffffffffffffffffffffffff1681526020019081526020016000205461158690919063ffffffff16565b600660008573ffffffffffffffffffffffffffffffffffffffff1673ffffffffffffffffffffffffffffffffffffffff168152602001908152602001600020819055508273ffffffffffffffffffffffffffffffffffffffff168473ffffffffffffffffffffffffffffffffffffffff167fddf252ad1be2c89b69c2b068fc378daa952ba7f163c4a11628f55a4df523b3ef846040518082815260200191505060405180910390a3600190509392505050565b600460009054906101000a900460ff1681565b6000600660008373ffffffffffffffffffffffffffffffffffffffff1673ffffffffffffffffffffffffffffffffffffffff168152602001908152602001600020549050919050565b600160009054906101000a900473ffffffffffffffffffffffffffffffffffffffff1673ffffffffffffffffffffffffffffffffffffffff163373ffffffffffffffffffffffffffffffffffffffff16141515610cca57600080fd5b600160009054906101000a900473ffffffffffffffffffffffffffffffffffffffff1673ffffffffffffffffffffffffffffffffffffffff166000809054906101000a900473ffffffffffffffffffffffffffffffffffffffff1673ffffffffffffffffffffffffffffffffffffffff167f8be0079c531659141344cd1fd0a4f28419497f9722a3daafe3b4186f6b6457e060405160405180910390a3600160009054906101000a900473ffffffffffffffffffffffffffffffffffffffff166000806101000a81548173ffffffffffffffffffffffffffffffffffffffff021916908373ffffffffffffffffffffffffffffffffffffffff1602179055506000600160006101000a81548173ffffffffffffffffffffffffffffffffffffffff021916908373ffffffffffffffffffffffffffffffffffffffff160217905550565b6000809054906101000a900473ffffffffffffffffffffffffffffffffffffffff1681565b60028054600181600116156101000203166002900480601f016020809104026020016040519081016040528092919081815260200182805460018160011615610100020316600290048015610ec85780601f10610e9d57610100808354040283529160200191610ec8565b820191906000526020600020905b815481529060010190602001808311610eab57829003601f168201915b505050505081565b6000610f2482600660003373ffffffffffffffffffffffffffffffffffffffff1673ffffffffffffffffffffffffffffffffffffffff1681526020019081526020016000205461156a90919063ffffffff16565b600660003373ffffffffffffffffffffffffffffffffffffffff1673ffffffffffffffffffffffffffffffffffffffff16815260200190815260200160002081905550610fb982600660008673ffffffffffffffffffffffffffffffffffffffff1673ffffffffffffffffffffffffffffffffffffffff1681526020019081526020016000205461158690919063ffffffff16565b600660008573ffffffffffffffffffffffffffffffffffffffff1673ffffffffffffffffffffffffffffffffffffffff168152602001908152602001600020819055508273ffffffffffffffffffffffffffffffffffffffff163373ffffffffffffffffffffffffffffffffffffffff167fddf252ad1be2c89b69c2b068fc378daa952ba7f163c4a11628f55a4df523b3ef846040518082815260200191505060405180910390a36001905092915050565b600082600760003373ffffffffffffffffffffffffffffffffffffffff1673ffffffffffffffffffffffffffffffffffffffff16815260200190815260200160002060008673ffffffffffffffffffffffffffffffffffffffff1673ffffffffffffffffffffffffffffffffffffffff168152602001908152602001600020819055508373ffffffffffffffffffffffffffffffffffffffff163373ffffffffffffffffffffffffffffffffffffffff167f8c5be1e5ebec7d5bd14f71427d1e84f3dd0314c0f7b2291e5b200ac8c7c3b925856040518082815260200191505060405180910390a38373ffffffffffffffffffffffffffffffffffffffff16638f4ffcb1338530866040518563ffffffff167c0100000000000000000000000000000000000000000000000000000000028152600401808573ffffffffffffffffffffffffffffffffffffffff1673ffffffffffffffffffffffffffffffffffffffff1681526020018481526020018373ffffffffffffffffffffffffffffffffffffffff1673ffffffffffffffffffffffffffffffffffffffff16815260200180602001828103825283818151815260200191508051906020019080838360005b8381101561124857808201518184015260208101905061122d565b50505050905090810190601f1680156112755780820380516001836020036101000a031916815260200191505b5095505050505050600060405180830381600087803b15801561129757600080fd5b505af11580156112ab573d6000803e3d6000fd5b50505050600190509392505050565b600160009054906101000a900473ffffffffffffffffffffffffffffffffffffffff1681565b60008060009054906101000a900473ffffffffffffffffffffffffffffffffffffffff1673ffffffffffffffffffffffffffffffffffffffff163373ffffffffffffffffffffffffffffffffffffffff1614151561133d57600080fd5b8273ffffffffffffffffffffffffffffffffffffffff1663a9059cbb6000809054906101000a900473ffffffffffffffffffffffffffffffffffffffff16846040518363ffffffff167c0100000000000000000000000000000000000000000000000000000000028152600401808373ffffffffffffffffffffffffffffffffffffffff1673ffffffffffffffffffffffffffffffffffffffff16815260200182815260200192505050602060405180830381600087803b15801561140157600080fd5b505af1158015611415573d6000803e3d6000fd5b505050506040513d602081101561142b57600080fd5b8101908080519060200190929190505050905092915050565b6000600760008473ffffffffffffffffffffffffffffffffffffffff1673ffffffffffffffffffffffffffffffffffffffff16815260200190815260200160002060008373ffffffffffffffffffffffffffffffffffffffff1673ffffffffffffffffffffffffffffffffffffffff16815260200190815260200160002054905092915050565b6000809054906101000a900473ffffffffffffffffffffffffffffffffffffffff1673ffffffffffffffffffffffffffffffffffffffff163373ffffffffffffffffffffffffffffffffffffffff1614151561152657600080fd5b80600160006101000a81548173ffffffffffffffffffffffffffffffffffffffff021916908373ffffffffffffffffffffffffffffffffffffffff16021790555050565b600082821115151561157b57600080fd5b818303905092915050565b6000818301905082811015151561159c57600080fd5b9291505056fea165627a7a72305820a61d3f40e804dd9a96573828dc52695f1355f149b3f4ed5e79076c9016a507080029",
  "source": "pragma solidity ^0.5.0;\r\n\r\nimport \"./Owned.sol\";\r\n\r\n// ----------------------------------------------------------------------------\r\n\r\n// 'FIXED' 'Example Fixed Supply Token' token contract\r\n\r\n//\r\n\r\n// Symbol      : FIXED\r\n\r\n// Name        : Example Fixed Supply Token\r\n\r\n// Total supply: 1,000,000.000000000000000000\r\n\r\n// Decimals    : 18\r\n\r\n//\r\n\r\n// Enjoy.\r\n\r\n//\r\n\r\n// (c) BokkyPooBah / Bok Consulting Pty Ltd 2018. The MIT Licence.\r\n\r\n// ----------------------------------------------------------------------------\r\n\r\n\r\n\r\n// ----------------------------------------------------------------------------\r\n\r\n// Safe maths\r\n\r\n// ----------------------------------------------------------------------------\r\n\r\nlibrary SafeMath {\r\n\r\n    function add(uint a, uint b) internal pure returns (uint c) {\r\n\r\n        c = a + b;\r\n\r\n        require(c >= a);\r\n\r\n    }\r\n\r\n    function sub(uint a, uint b) internal pure returns (uint c) {\r\n\r\n        require(b <= a);\r\n\r\n        c = a - b;\r\n\r\n    }\r\n\r\n    function mul(uint a, uint b) internal pure returns (uint c) {\r\n\r\n        c = a * b;\r\n\r\n        require(a == 0 || c / a == b);\r\n\r\n    }\r\n\r\n    function div(uint a, uint b) internal pure returns (uint c) {\r\n\r\n        require(b > 0);\r\n\r\n        c = a / b;\r\n\r\n    }\r\n\r\n}\r\n\r\n\r\n\r\n// ----------------------------------------------------------------------------\r\n\r\n// ERC Token Standard #20 Interface\r\n\r\n// https://github.com/ethereum/EIPs/blob/master/EIPS/eip-20.md\r\n\r\n// ----------------------------------------------------------------------------\r\n\r\ncontract ERC20Interface {\r\n\r\n    function totalSupply() public view returns (uint);\r\n\r\n    function balanceOf(address tokenOwner) public view returns (uint balance);\r\n\r\n    function allowance(address tokenOwner, address spender) public view returns (uint remaining);\r\n\r\n    function transfer(address to, uint tokens) public returns (bool success);\r\n\r\n    function approve(address spender, uint tokens) public returns (bool success);\r\n\r\n    function transferFrom(address from, address to, uint tokens) public returns (bool success);\r\n\r\n\r\n    event Transfer(address indexed from, address indexed to, uint tokens);\r\n\r\n    event Approval(address indexed tokenOwner, address indexed spender, uint tokens);\r\n\r\n}\r\n\r\n\r\n\r\n// ----------------------------------------------------------------------------\r\n\r\n// Contract function to receive approval and execute function in one call\r\n\r\n//\r\n\r\n// Borrowed from MiniMeToken\r\n\r\n// ----------------------------------------------------------------------------\r\n\r\ncontract ApproveAndCallFallBack {\r\n\r\n    function receiveApproval(address from, uint256 tokens, address token, bytes memory data) public;\r\n\r\n}\r\n\r\n\r\n// ----------------------------------------------------------------------------\r\n\r\n// ERC20 Token, with the addition of symbol, name and decimals and a\r\n\r\n// fixed supply\r\n\r\n// ----------------------------------------------------------------------------\r\n\r\ncontract FixedSupplyToken is ERC20Interface, Owned {\r\n\r\n    using SafeMath for uint;\r\n\r\n\r\n    string public symbol;\r\n\r\n    string public  name;\r\n\r\n    uint8 public decimals;\r\n\r\n    uint _totalSupply;\r\n\r\n\r\n    mapping(address => uint) balances;\r\n\r\n    mapping(address => mapping(address => uint)) allowed;\r\n\r\n\r\n\r\n    // ------------------------------------------------------------------------\r\n\r\n    // Constructor\r\n\r\n    // ------------------------------------------------------------------------\r\n\r\n    constructor() public {\r\n\r\n        symbol = \"FIXED\";\r\n\r\n        name = \"Example Fixed Supply Token\";\r\n\r\n        decimals = 0;\r\n\r\n        _totalSupply = 1000000 * 10**uint(decimals);\r\n\r\n        balances[owner] = _totalSupply;\r\n\r\n        emit Transfer(address(0), owner, _totalSupply);\r\n\r\n    }\r\n\r\n\r\n\r\n    // ------------------------------------------------------------------------\r\n\r\n    // Total supply\r\n\r\n    // ------------------------------------------------------------------------\r\n\r\n    function totalSupply() public view returns (uint) {\r\n\r\n        return _totalSupply.sub(balances[address(0)]);\r\n\r\n    }\r\n\r\n\r\n\r\n    // ------------------------------------------------------------------------\r\n\r\n    // Get the token balance for account `tokenOwner`\r\n\r\n    // ------------------------------------------------------------------------\r\n\r\n    function balanceOf(address tokenOwner) public view returns (uint balance) {\r\n\r\n        return balances[tokenOwner];\r\n\r\n    }\r\n\r\n\r\n\r\n    // ------------------------------------------------------------------------\r\n\r\n    // Transfer the balance from token owner's account to `to` account\r\n\r\n    // - Owner's account must have sufficient balance to transfer\r\n\r\n    // - 0 value transfers are allowed\r\n\r\n    // ------------------------------------------------------------------------\r\n\r\n    function transfer(address to, uint tokens) public returns (bool success) {\r\n\r\n        balances[msg.sender] = balances[msg.sender].sub(tokens);\r\n\r\n        balances[to] = balances[to].add(tokens);\r\n\r\n        emit Transfer(msg.sender, to, tokens);\r\n\r\n        return true;\r\n\r\n    }\r\n\r\n\r\n\r\n    // ------------------------------------------------------------------------\r\n\r\n    // Token owner can approve for `spender` to transferFrom(...) `tokens`\r\n\r\n    // from the token owner's account\r\n\r\n    //\r\n\r\n    // https://github.com/ethereum/EIPs/blob/master/EIPS/eip-20-token-standard.md\r\n\r\n    // recommends that there are no checks for the approval double-spend attack\r\n\r\n    // as this should be implemented in user interfaces\r\n\r\n    // ------------------------------------------------------------------------\r\n\r\n    function approve(address spender, uint tokens) public returns (bool success) {\r\n\r\n        allowed[msg.sender][spender] = tokens;\r\n\r\n        emit Approval(msg.sender, spender, tokens);\r\n\r\n        return true;\r\n\r\n    }\r\n\r\n\r\n\r\n    // ------------------------------------------------------------------------\r\n\r\n    // Transfer `tokens` from the `from` account to the `to` account\r\n\r\n    //\r\n\r\n    // The calling account must already have sufficient tokens approve(...)-d\r\n\r\n    // for spending from the `from` account and\r\n\r\n    // - From account must have sufficient balance to transfer\r\n\r\n    // - Spender must have sufficient allowance to transfer\r\n\r\n    // - 0 value transfers are allowed\r\n\r\n    // ------------------------------------------------------------------------\r\n\r\n    function transferFrom(address from, address to, uint tokens) public returns (bool success) {\r\n\r\n        balances[from] = balances[from].sub(tokens);\r\n\r\n        allowed[from][msg.sender] = allowed[from][msg.sender].sub(tokens);\r\n\r\n        balances[to] = balances[to].add(tokens);\r\n\r\n        emit Transfer(from, to, tokens);\r\n\r\n        return true;\r\n\r\n    }\r\n\r\n\r\n\r\n    // ------------------------------------------------------------------------\r\n\r\n    // Returns the amount of tokens approved by the owner that can be\r\n\r\n    // transferred to the spender's account\r\n\r\n    // ------------------------------------------------------------------------\r\n\r\n    function allowance(address tokenOwner, address spender) public view returns (uint remaining) {\r\n\r\n        return allowed[tokenOwner][spender];\r\n\r\n    }\r\n\r\n\r\n\r\n    // ------------------------------------------------------------------------\r\n\r\n    // Token owner can approve for `spender` to transferFrom(...) `tokens`\r\n\r\n    // from the token owner's account. The `spender` contract function\r\n\r\n    // `receiveApproval(...)` is then executed\r\n\r\n    // ------------------------------------------------------------------------\r\n\r\n    function approveAndCall(address spender, uint tokens, bytes memory data) public returns (bool success) {\r\n\r\n        allowed[msg.sender][spender] = tokens;\r\n\r\n        emit Approval(msg.sender, spender, tokens);\r\n\r\n        ApproveAndCallFallBack(spender).receiveApproval(msg.sender, tokens, address(this), data);\r\n\r\n        return true;\r\n\r\n    }\r\n\r\n\r\n\r\n    // ------------------------------------------------------------------------\r\n\r\n    // Don't accept ETH\r\n\r\n    // ------------------------------------------------------------------------\r\n\r\n    function () external payable {\r\n\r\n        revert();\r\n\r\n    }\r\n\r\n\r\n\r\n    // ------------------------------------------------------------------------\r\n\r\n    // Owner can transfer out any accidentally sent ERC20 tokens\r\n\r\n    // ------------------------------------------------------------------------\r\n\r\n    function transferAnyERC20Token(address tokenAddress, uint tokens) public onlyOwner returns (bool success) {\r\n\r\n        return ERC20Interface(tokenAddress).transfer(owner, tokens);\r\n\r\n    }\r\n\r\n}",
  "sourcePath": "F:\\Works\\ethereum masterclass\\contracts\\FixedSupplyToken.sol",
  "compiler": {
    "name": "solc",
    "version": "0.5.3+commit.10d17f24.Emscripten.clang"
  },
  "schemaVersion": "3.0.0-beta.2",
  "updatedAt": "2019-02-27T21:15:21.386Z",
  "devdoc": {
    "methods": {}
  },
  "userdoc": {
    "methods": {}
  }
}